{
  "contractName": "NFT",
  "abi": [
    {
      "inputs": [
        {
          "internalType": "string",
          "name": "conName",
          "type": "string"
        },
        {
          "internalType": "string",
          "name": "conSymb",
          "type": "string"
        }
      ],
      "stateMutability": "nonpayable",
      "type": "constructor"
    },
    {
      "anonymous": false,
      "inputs": [
        {
          "indexed": true,
          "internalType": "address",
          "name": "owner",
          "type": "address"
        },
        {
          "indexed": true,
          "internalType": "address",
          "name": "approved",
          "type": "address"
        },
        {
          "indexed": true,
          "internalType": "uint256",
          "name": "tokenId",
          "type": "uint256"
        }
      ],
      "name": "Approval",
      "type": "event"
    },
    {
      "anonymous": false,
      "inputs": [
        {
          "indexed": true,
          "internalType": "address",
          "name": "owner",
          "type": "address"
        },
        {
          "indexed": true,
          "internalType": "address",
          "name": "operator",
          "type": "address"
        },
        {
          "indexed": false,
          "internalType": "bool",
          "name": "approved",
          "type": "bool"
        }
      ],
      "name": "ApprovalForAll",
      "type": "event"
    },
    {
      "anonymous": false,
      "inputs": [
        {
          "indexed": true,
          "internalType": "address",
          "name": "previousOwner",
          "type": "address"
        },
        {
          "indexed": true,
          "internalType": "address",
          "name": "newOwner",
          "type": "address"
        }
      ],
      "name": "OwnershipTransferred",
      "type": "event"
    },
    {
      "anonymous": false,
      "inputs": [
        {
          "indexed": true,
          "internalType": "address",
          "name": "from",
          "type": "address"
        },
        {
          "indexed": true,
          "internalType": "address",
          "name": "to",
          "type": "address"
        },
        {
          "indexed": true,
          "internalType": "uint256",
          "name": "tokenId",
          "type": "uint256"
        }
      ],
      "name": "Transfer",
      "type": "event"
    },
    {
      "inputs": [
        {
          "internalType": "address",
          "name": "to",
          "type": "address"
        },
        {
          "internalType": "uint256",
          "name": "tokenId",
          "type": "uint256"
        }
      ],
      "name": "approve",
      "outputs": [],
      "stateMutability": "nonpayable",
      "type": "function"
    },
    {
      "inputs": [
        {
          "internalType": "address",
          "name": "owner",
          "type": "address"
        }
      ],
      "name": "balanceOf",
      "outputs": [
        {
          "internalType": "uint256",
          "name": "",
          "type": "uint256"
        }
      ],
      "stateMutability": "view",
      "type": "function",
      "constant": true
    },
    {
      "inputs": [
        {
          "internalType": "uint256",
          "name": "tokenId",
          "type": "uint256"
        }
      ],
      "name": "burn",
      "outputs": [],
      "stateMutability": "nonpayable",
      "type": "function"
    },
    {
      "inputs": [
        {
          "internalType": "uint256",
          "name": "tokenId",
          "type": "uint256"
        }
      ],
      "name": "getApproved",
      "outputs": [
        {
          "internalType": "address",
          "name": "",
          "type": "address"
        }
      ],
      "stateMutability": "view",
      "type": "function",
      "constant": true
    },
    {
      "inputs": [
        {
          "internalType": "address",
          "name": "owner",
          "type": "address"
        },
        {
          "internalType": "address",
          "name": "operator",
          "type": "address"
        }
      ],
      "name": "isApprovedForAll",
      "outputs": [
        {
          "internalType": "bool",
          "name": "",
          "type": "bool"
        }
      ],
      "stateMutability": "view",
      "type": "function",
      "constant": true
    },
    {
      "inputs": [],
      "name": "name",
      "outputs": [
        {
          "internalType": "string",
          "name": "",
          "type": "string"
        }
      ],
      "stateMutability": "view",
      "type": "function",
      "constant": true
    },
    {
      "inputs": [],
      "name": "owner",
      "outputs": [
        {
          "internalType": "address",
          "name": "",
          "type": "address"
        }
      ],
      "stateMutability": "view",
      "type": "function",
      "constant": true
    },
    {
      "inputs": [
        {
          "internalType": "uint256",
          "name": "tokenId",
          "type": "uint256"
        }
      ],
      "name": "ownerOf",
      "outputs": [
        {
          "internalType": "address",
          "name": "",
          "type": "address"
        }
      ],
      "stateMutability": "view",
      "type": "function",
      "constant": true
    },
    {
      "inputs": [],
      "name": "renounceOwnership",
      "outputs": [],
      "stateMutability": "nonpayable",
      "type": "function"
    },
    {
      "inputs": [
        {
          "internalType": "address",
          "name": "from",
          "type": "address"
        },
        {
          "internalType": "address",
          "name": "to",
          "type": "address"
        },
        {
          "internalType": "uint256",
          "name": "tokenId",
          "type": "uint256"
        }
      ],
      "name": "safeTransferFrom",
      "outputs": [],
      "stateMutability": "nonpayable",
      "type": "function"
    },
    {
      "inputs": [
        {
          "internalType": "address",
          "name": "from",
          "type": "address"
        },
        {
          "internalType": "address",
          "name": "to",
          "type": "address"
        },
        {
          "internalType": "uint256",
          "name": "tokenId",
          "type": "uint256"
        },
        {
          "internalType": "bytes",
          "name": "_data",
          "type": "bytes"
        }
      ],
      "name": "safeTransferFrom",
      "outputs": [],
      "stateMutability": "nonpayable",
      "type": "function"
    },
    {
      "inputs": [
        {
          "internalType": "address",
          "name": "operator",
          "type": "address"
        },
        {
          "internalType": "bool",
          "name": "approved",
          "type": "bool"
        }
      ],
      "name": "setApprovalForAll",
      "outputs": [],
      "stateMutability": "nonpayable",
      "type": "function"
    },
    {
      "inputs": [
        {
          "internalType": "bytes4",
          "name": "interfaceId",
          "type": "bytes4"
        }
      ],
      "name": "supportsInterface",
      "outputs": [
        {
          "internalType": "bool",
          "name": "",
          "type": "bool"
        }
      ],
      "stateMutability": "view",
      "type": "function",
      "constant": true
    },
    {
      "inputs": [],
      "name": "symbol",
      "outputs": [
        {
          "internalType": "string",
          "name": "",
          "type": "string"
        }
      ],
      "stateMutability": "view",
      "type": "function",
      "constant": true
    },
    {
      "inputs": [
        {
          "internalType": "uint256",
          "name": "tokenId",
          "type": "uint256"
        }
      ],
      "name": "tokenURI",
      "outputs": [
        {
          "internalType": "string",
          "name": "",
          "type": "string"
        }
      ],
      "stateMutability": "view",
      "type": "function",
      "constant": true
    },
    {
      "inputs": [
        {
          "internalType": "address",
          "name": "from",
          "type": "address"
        },
        {
          "internalType": "address",
          "name": "to",
          "type": "address"
        },
        {
          "internalType": "uint256",
          "name": "tokenId",
          "type": "uint256"
        }
      ],
      "name": "transferFrom",
      "outputs": [],
      "stateMutability": "nonpayable",
      "type": "function"
    },
    {
      "inputs": [
        {
          "internalType": "address",
          "name": "newOwner",
          "type": "address"
        }
      ],
      "name": "transferOwnership",
      "outputs": [],
      "stateMutability": "nonpayable",
      "type": "function"
    },
    {
      "inputs": [
        {
          "internalType": "address",
          "name": "to",
          "type": "address"
        },
        {
          "internalType": "string",
          "name": "docHASH",
          "type": "string"
        },
        {
          "internalType": "string",
          "name": "issuerID",
          "type": "string"
        }
      ],
      "name": "safeMint",
      "outputs": [],
      "stateMutability": "nonpayable",
      "type": "function"
    },
    {
      "inputs": [
        {
          "internalType": "string",
          "name": "docHASH",
          "type": "string"
        },
        {
          "internalType": "uint256",
          "name": "tokenId",
          "type": "uint256"
        }
      ],
      "name": "setdochash",
      "outputs": [],
      "stateMutability": "nonpayable",
      "type": "function"
    },
    {
      "inputs": [
        {
          "internalType": "uint256",
          "name": "tokenId",
          "type": "uint256"
        }
      ],
      "name": "getIssuerID",
      "outputs": [
        {
          "internalType": "string",
          "name": "",
          "type": "string"
        }
      ],
      "stateMutability": "view",
      "type": "function",
      "constant": true
    },
    {
      "inputs": [
        {
          "internalType": "uint256",
          "name": "tokenId",
          "type": "uint256"
        }
      ],
      "name": "getdoc",
      "outputs": [
        {
          "internalType": "string",
          "name": "",
          "type": "string"
        }
      ],
      "stateMutability": "view",
      "type": "function",
      "constant": true
    },
    {
      "inputs": [
        {
          "internalType": "uint256",
          "name": "tokenId",
          "type": "uint256"
        }
      ],
      "name": "Ownerof",
      "outputs": [
        {
          "internalType": "address",
          "name": "",
          "type": "address"
        }
      ],
      "stateMutability": "view",
      "type": "function",
      "constant": true
    },
    {
      "inputs": [
        {
          "internalType": "address",
          "name": "to",
          "type": "address"
        }
      ],
      "name": "gettokenID",
      "outputs": [
        {
          "internalType": "uint256",
          "name": "",
          "type": "uint256"
        }
      ],
      "stateMutability": "view",
      "type": "function",
      "constant": true
    }
  ],
  "bytecode": "0x60806040523480156200001157600080fd5b506040516200392638038062003926833981810160405281019062000037919062000285565b818181600090805190602001906200005192919062000163565b5080600190805190602001906200006a92919062000163565b5050506200008d620000816200009560201b60201c565b6200009d60201b60201c565b505062000468565b600033905090565b6000600660009054906101000a900473ffffffffffffffffffffffffffffffffffffffff16905081600660006101000a81548173ffffffffffffffffffffffffffffffffffffffff021916908373ffffffffffffffffffffffffffffffffffffffff1602179055508173ffffffffffffffffffffffffffffffffffffffff168173ffffffffffffffffffffffffffffffffffffffff167f8be0079c531659141344cd1fd0a4f28419497f9722a3daafe3b4186f6b6457e060405160405180910390a35050565b82805462000171906200038d565b90600052602060002090601f016020900481019282620001955760008555620001e1565b82601f10620001b057805160ff1916838001178555620001e1565b82800160010185558215620001e1579182015b82811115620001e0578251825591602001919060010190620001c3565b5b509050620001f09190620001f4565b5090565b5b808211156200020f576000816000905550600101620001f5565b5090565b60006200022a620002248462000321565b620002f8565b9050828152602081018484840111156200024357600080fd5b6200025084828562000357565b509392505050565b600082601f8301126200026a57600080fd5b81516200027c84826020860162000213565b91505092915050565b600080604083850312156200029957600080fd5b600083015167ffffffffffffffff811115620002b457600080fd5b620002c28582860162000258565b925050602083015167ffffffffffffffff811115620002e057600080fd5b620002ee8582860162000258565b9150509250929050565b60006200030462000317565b9050620003128282620003c3565b919050565b6000604051905090565b600067ffffffffffffffff8211156200033f576200033e62000428565b5b6200034a8262000457565b9050602081019050919050565b60005b83811015620003775780820151818401526020810190506200035a565b8381111562000387576000848401525b50505050565b60006002820490506001821680620003a657607f821691505b60208210811415620003bd57620003bc620003f9565b5b50919050565b620003ce8262000457565b810181811067ffffffffffffffff82111715620003f057620003ef62000428565b5b80604052505050565b7f4e487b7100000000000000000000000000000000000000000000000000000000600052602260045260246000fd5b7f4e487b7100000000000000000000000000000000000000000000000000000000600052604160045260246000fd5b6000601f19601f8301169050919050565b6134ae80620004786000396000f3fe608060405234801561001057600080fd5b506004361061014d5760003560e01c80638da5cb5b116100c3578063d99e06491161007c578063d99e06491461039a578063e985e9c5146103ca578063eb72e724146103fa578063eca81d421461042a578063f2fde38b14610446578063f461db4a146104625761014d565b80638da5cb5b146102da57806395d89b41146102f8578063a1684cb914610316578063a22cb46514610332578063b88d4fde1461034e578063c87b56dd1461036a5761014d565b806342842e0e1161011557806342842e0e1461020857806342966c6814610224578063465970e9146102405780636352211e1461027057806370a08231146102a0578063715018a6146102d05761014d565b806301ffc9a71461015257806306fdde0314610182578063081812fc146101a0578063095ea7b3146101d057806323b872dd146101ec575b600080fd5b61016c6004803603810190610167919061242f565b610492565b60405161017991906128cf565b60405180910390f35b61018a610574565b60405161019791906128ea565b60405180910390f35b6101ba60048036038101906101b591906124d5565b610606565b6040516101c79190612868565b60405180910390f35b6101ea60048036038101906101e591906123f3565b61068b565b005b6102066004803603810190610201919061226e565b6107a3565b005b610222600480360381019061021d919061226e565b610803565b005b61023e600480360381019061023991906124d5565b610823565b005b61025a60048036038101906102559190612209565b61087f565b6040516102679190612b4c565b60405180910390f35b61028a600480360381019061028591906124d5565b6108d9565b6040516102979190612868565b60405180910390f35b6102ba60048036038101906102b59190612209565b61098b565b6040516102c79190612b4c565b60405180910390f35b6102d8610a43565b005b6102e2610acb565b6040516102ef9190612868565b60405180910390f35b610300610af5565b60405161030d91906128ea565b60405180910390f35b610330600480360381019061032b9190612481565b610b87565b005b61034c60048036038101906103479190612338565b610bb3565b005b610368600480360381019061036391906122bd565b610bc9565b005b610384600480360381019061037f91906124d5565b610c2b565b60405161039191906128ea565b60405180910390f35b6103b460048036038101906103af91906124d5565b610cd2565b6040516103c19190612868565b60405180910390f35b6103e460048036038101906103df9190612232565b610db1565b6040516103f191906128cf565b60405180910390f35b610414600480360381019061040f91906124d5565b610e45565b60405161042191906128ea565b60405180910390f35b610444600480360381019061043f9190612374565b610f8d565b005b610460600480360381019061045b9190612209565b610fb7565b005b61047c600480360381019061047791906124d5565b6110af565b60405161048991906128ea565b60405180910390f35b60007f80ac58cd000000000000000000000000000000000000000000000000000000007bffffffffffffffffffffffffffffffffffffffffffffffffffffffff1916827bffffffffffffffffffffffffffffffffffffffffffffffffffffffff1916148061055d57507f5b5e139f000000000000000000000000000000000000000000000000000000007bffffffffffffffffffffffffffffffffffffffffffffffffffffffff1916827bffffffffffffffffffffffffffffffffffffffffffffffffffffffff1916145b8061056d575061056c826111f7565b5b9050919050565b60606000805461058390612da2565b80601f01602080910402602001604051908101604052809291908181526020018280546105af90612da2565b80156105fc5780601f106105d1576101008083540402835291602001916105fc565b820191906000526020600020905b8154815290600101906020018083116105df57829003601f168201915b5050505050905090565b600061061182611261565b610650576040517f08c379a000000000000000000000000000000000000000000000000000000000815260040161064790612a8c565b60405180910390fd5b6004600083815260200190815260200160002060009054906101000a900473ffffffffffffffffffffffffffffffffffffffff169050919050565b6000610696826108d9565b90508073ffffffffffffffffffffffffffffffffffffffff168373ffffffffffffffffffffffffffffffffffffffff161415610707576040517f08c379a00000000000000000000000000000000000000000000000000000000081526004016106fe90612aec565b60405180910390fd5b8073ffffffffffffffffffffffffffffffffffffffff166107266112cd565b73ffffffffffffffffffffffffffffffffffffffff16148061075557506107548161074f6112cd565b610db1565b5b610794576040517f08c379a000000000000000000000000000000000000000000000000000000000815260040161078b906129ec565b60405180910390fd5b61079e83836112d5565b505050565b6107b46107ae6112cd565b8261138e565b6107f3576040517f08c379a00000000000000000000000000000000000000000000000000000000081526004016107ea90612b0c565b60405180910390fd5b6107fe83838361146c565b505050565b61081e83838360405180602001604052806000815250610bc9565b505050565b61083461082e6112cd565b8261138e565b610873576040517f08c379a000000000000000000000000000000000000000000000000000000000815260040161086a90612b2c565b60405180910390fd5b61087c816116d3565b50565b6000806001600b60008573ffffffffffffffffffffffffffffffffffffffff1673ffffffffffffffffffffffffffffffffffffffff168152602001908152602001600020546108ce9190612cb8565b905080915050919050565b6000806002600084815260200190815260200160002060009054906101000a900473ffffffffffffffffffffffffffffffffffffffff169050600073ffffffffffffffffffffffffffffffffffffffff168173ffffffffffffffffffffffffffffffffffffffff161415610982576040517f08c379a000000000000000000000000000000000000000000000000000000000815260040161097990612a2c565b60405180910390fd5b80915050919050565b60008073ffffffffffffffffffffffffffffffffffffffff168273ffffffffffffffffffffffffffffffffffffffff1614156109fc576040517f08c379a00000000000000000000000000000000000000000000000000000000081526004016109f390612a0c565b60405180910390fd5b600360008373ffffffffffffffffffffffffffffffffffffffff1673ffffffffffffffffffffffffffffffffffffffff168152602001908152602001600020549050919050565b610a4b6112cd565b73ffffffffffffffffffffffffffffffffffffffff16610a69610acb565b73ffffffffffffffffffffffffffffffffffffffff1614610abf576040517f08c379a0000000000000000000000000000000000000000000000000000000008152600401610ab690612aac565b60405180910390fd5b610ac960006116df565b565b6000600660009054906101000a900473ffffffffffffffffffffffffffffffffffffffff16905090565b606060018054610b0490612da2565b80601f0160208091040260200160405190810160405280929190818152602001828054610b3090612da2565b8015610b7d5780601f10610b5257610100808354040283529160200191610b7d565b820191906000526020600020905b815481529060010190602001808311610b6057829003601f168201915b5050505050905090565b81600860008381526020019081526020016000209080519060200190610bae92919061202d565b505050565b610bc5610bbe6112cd565b83836117a5565b5050565b610bda610bd46112cd565b8361138e565b610c19576040517f08c379a0000000000000000000000000000000000000000000000000000000008152600401610c1090612b0c565b60405180910390fd5b610c2584848484611912565b50505050565b6060610c3682611261565b610c75576040517f08c379a0000000000000000000000000000000000000000000000000000000008152600401610c6c90612acc565b60405180910390fd5b6000610c7f61196e565b90506000815111610c9f5760405180602001604052806000815250610cca565b80610ca984611985565b604051602001610cba929190612844565b6040516020818303038152906040525b915050919050565b60008073ffffffffffffffffffffffffffffffffffffffff16600a600084815260200190815260200160002060009054906101000a900473ffffffffffffffffffffffffffffffffffffffff1673ffffffffffffffffffffffffffffffffffffffff161415610d76576040517f08c379a0000000000000000000000000000000000000000000000000000000008152600401610d6d90612a4c565b60405180910390fd5b600a600083815260200190815260200160002060009054906101000a900473ffffffffffffffffffffffffffffffffffffffff169050919050565b6000600560008473ffffffffffffffffffffffffffffffffffffffff1673ffffffffffffffffffffffffffffffffffffffff16815260200190815260200160002060008373ffffffffffffffffffffffffffffffffffffffff1673ffffffffffffffffffffffffffffffffffffffff16815260200190815260200160002060009054906101000a900460ff16905092915050565b6060600073ffffffffffffffffffffffffffffffffffffffff16600a600084815260200190815260200160002060009054906101000a900473ffffffffffffffffffffffffffffffffffffffff1673ffffffffffffffffffffffffffffffffffffffff161415610eea576040517f08c379a0000000000000000000000000000000000000000000000000000000008152600401610ee190612a4c565b60405180910390fd5b600960008381526020019081526020016000208054610f0890612da2565b80601f0160208091040260200160405190810160405280929190818152602001828054610f3490612da2565b8015610f815780601f10610f5657610100808354040283529160200191610f81565b820191906000526020600020905b815481529060010190602001808311610f6457829003601f168201915b50505050509050919050565b6000610f996007611b32565b9050610fa784828486611b40565b610fb16007611d36565b50505050565b610fbf6112cd565b73ffffffffffffffffffffffffffffffffffffffff16610fdd610acb565b73ffffffffffffffffffffffffffffffffffffffff1614611033576040517f08c379a000000000000000000000000000000000000000000000000000000000815260040161102a90612aac565b60405180910390fd5b600073ffffffffffffffffffffffffffffffffffffffff168173ffffffffffffffffffffffffffffffffffffffff1614156110a3576040517f08c379a000000000000000000000000000000000000000000000000000000000815260040161109a9061292c565b60405180910390fd5b6110ac816116df565b50565b6060600073ffffffffffffffffffffffffffffffffffffffff16600a600084815260200190815260200160002060009054906101000a900473ffffffffffffffffffffffffffffffffffffffff1673ffffffffffffffffffffffffffffffffffffffff161415611154576040517f08c379a000000000000000000000000000000000000000000000000000000000815260040161114b90612a4c565b60405180910390fd5b60086000838152602001908152602001600020805461117290612da2565b80601f016020809104026020016040519081016040528092919081815260200182805461119e90612da2565b80156111eb5780601f106111c0576101008083540402835291602001916111eb565b820191906000526020600020905b8154815290600101906020018083116111ce57829003601f168201915b50505050509050919050565b60007f01ffc9a7000000000000000000000000000000000000000000000000000000007bffffffffffffffffffffffffffffffffffffffffffffffffffffffff1916827bffffffffffffffffffffffffffffffffffffffffffffffffffffffff1916149050919050565b60008073ffffffffffffffffffffffffffffffffffffffff166002600084815260200190815260200160002060009054906101000a900473ffffffffffffffffffffffffffffffffffffffff1673ffffffffffffffffffffffffffffffffffffffff1614159050919050565b600033905090565b816004600083815260200190815260200160002060006101000a81548173ffffffffffffffffffffffffffffffffffffffff021916908373ffffffffffffffffffffffffffffffffffffffff160217905550808273ffffffffffffffffffffffffffffffffffffffff16611348836108d9565b73ffffffffffffffffffffffffffffffffffffffff167f8c5be1e5ebec7d5bd14f71427d1e84f3dd0314c0f7b2291e5b200ac8c7c3b92560405160405180910390a45050565b600061139982611261565b6113d8576040517f08c379a00000000000000000000000000000000000000000000000000000000081526004016113cf906129cc565b60405180910390fd5b60006113e3836108d9565b90508073ffffffffffffffffffffffffffffffffffffffff168473ffffffffffffffffffffffffffffffffffffffff16148061142557506114248185610db1565b5b8061146357508373ffffffffffffffffffffffffffffffffffffffff1661144b84610606565b73ffffffffffffffffffffffffffffffffffffffff16145b91505092915050565b8273ffffffffffffffffffffffffffffffffffffffff1661148c826108d9565b73ffffffffffffffffffffffffffffffffffffffff16146114e2576040517f08c379a00000000000000000000000000000000000000000000000000000000081526004016114d99061294c565b60405180910390fd5b600073ffffffffffffffffffffffffffffffffffffffff168273ffffffffffffffffffffffffffffffffffffffff161415611552576040517f08c379a00000000000000000000000000000000000000000000000000000000081526004016115499061298c565b60405180910390fd5b61155d838383611d4c565b6115686000826112d5565b6001600360008573ffffffffffffffffffffffffffffffffffffffff1673ffffffffffffffffffffffffffffffffffffffff16815260200190815260200160002060008282546115b89190612cb8565b925050819055506001600360008473ffffffffffffffffffffffffffffffffffffffff1673ffffffffffffffffffffffffffffffffffffffff168152602001908152602001600020600082825461160f9190612c31565b92505081905550816002600083815260200190815260200160002060006101000a81548173ffffffffffffffffffffffffffffffffffffffff021916908373ffffffffffffffffffffffffffffffffffffffff160217905550808273ffffffffffffffffffffffffffffffffffffffff168473ffffffffffffffffffffffffffffffffffffffff167fddf252ad1be2c89b69c2b068fc378daa952ba7f163c4a11628f55a4df523b3ef60405160405180910390a46116ce838383611d51565b505050565b6116dc81611d56565b50565b6000600660009054906101000a900473ffffffffffffffffffffffffffffffffffffffff16905081600660006101000a81548173ffffffffffffffffffffffffffffffffffffffff021916908373ffffffffffffffffffffffffffffffffffffffff1602179055508173ffffffffffffffffffffffffffffffffffffffff168173ffffffffffffffffffffffffffffffffffffffff167f8be0079c531659141344cd1fd0a4f28419497f9722a3daafe3b4186f6b6457e060405160405180910390a35050565b8173ffffffffffffffffffffffffffffffffffffffff168373ffffffffffffffffffffffffffffffffffffffff161415611814576040517f08c379a000000000000000000000000000000000000000000000000000000000815260040161180b906129ac565b60405180910390fd5b80600560008573ffffffffffffffffffffffffffffffffffffffff1673ffffffffffffffffffffffffffffffffffffffff16815260200190815260200160002060008473ffffffffffffffffffffffffffffffffffffffff1673ffffffffffffffffffffffffffffffffffffffff16815260200190815260200160002060006101000a81548160ff0219169083151502179055508173ffffffffffffffffffffffffffffffffffffffff168373ffffffffffffffffffffffffffffffffffffffff167f17307eab39ab6107e8899845ad3d59bd9653f200f220920489ca2b5937696c318360405161190591906128cf565b60405180910390a3505050565b61191d84848461146c565b61192984848484611e73565b611968576040517f08c379a000000000000000000000000000000000000000000000000000000000815260040161195f9061290c565b60405180910390fd5b50505050565b606060405180602001604052806000815250905090565b606060008214156119cd576040518060400160405280600181526020017f30000000000000000000000000000000000000000000000000000000000000008152509050611b2d565b600082905060005b600082146119ff5780806119e890612e05565b915050600a826119f89190612c87565b91506119d5565b60008167ffffffffffffffff811115611a41577f4e487b7100000000000000000000000000000000000000000000000000000000600052604160045260246000fd5b6040519080825280601f01601f191660200182016040528015611a735781602001600182028036833780820191505090505b5090505b60008514611b2657600182611a8c9190612cb8565b9150600a85611a9b9190612e4e565b6030611aa79190612c31565b60f81b818381518110611ae3577f4e487b7100000000000000000000000000000000000000000000000000000000600052603260045260246000fd5b60200101907effffffffffffffffffffffffffffffffffffffffffffffffffffffffffffff1916908160001a905350600a85611b1f9190612c87565b9450611a77565b8093505050505b919050565b600081600001549050919050565b600073ffffffffffffffffffffffffffffffffffffffff168473ffffffffffffffffffffffffffffffffffffffff161415611bb0576040517f08c379a0000000000000000000000000000000000000000000000000000000008152600401611ba790612a6c565b60405180910390fd5b611bb983611261565b15611bf9576040517f08c379a0000000000000000000000000000000000000000000000000000000008152600401611bf09061296c565b60405180910390fd5b6001600b60008673ffffffffffffffffffffffffffffffffffffffff1673ffffffffffffffffffffffffffffffffffffffff1681526020019081526020016000206000828254611c499190612c31565b9250508190555083600a600085815260200190815260200160002060006101000a81548173ffffffffffffffffffffffffffffffffffffffff021916908373ffffffffffffffffffffffffffffffffffffffff16021790555081600960008581526020019081526020016000209080519060200190611cc992919061202d565b50611cd48184610b87565b828473ffffffffffffffffffffffffffffffffffffffff16600073ffffffffffffffffffffffffffffffffffffffff167fddf252ad1be2c89b69c2b068fc378daa952ba7f163c4a11628f55a4df523b3ef60405160405180910390a450505050565b6001816000016000828254019250508190555050565b505050565b505050565b6000611d61826108d9565b9050611d6f81600084611d4c565b611d7a6000836112d5565b6001600360008373ffffffffffffffffffffffffffffffffffffffff1673ffffffffffffffffffffffffffffffffffffffff1681526020019081526020016000206000828254611dca9190612cb8565b925050819055506002600083815260200190815260200160002060006101000a81549073ffffffffffffffffffffffffffffffffffffffff021916905581600073ffffffffffffffffffffffffffffffffffffffff168273ffffffffffffffffffffffffffffffffffffffff167fddf252ad1be2c89b69c2b068fc378daa952ba7f163c4a11628f55a4df523b3ef60405160405180910390a4611e6f81600084611d51565b5050565b6000611e948473ffffffffffffffffffffffffffffffffffffffff1661200a565b15611ffd578373ffffffffffffffffffffffffffffffffffffffff1663150b7a02611ebd6112cd565b8786866040518563ffffffff1660e01b8152600401611edf9493929190612883565b602060405180830381600087803b158015611ef957600080fd5b505af1925050508015611f2a57506040513d601f19601f82011682018060405250810190611f279190612458565b60015b611fad573d8060008114611f5a576040519150601f19603f3d011682016040523d82523d6000602084013e611f5f565b606091505b50600081511415611fa5576040517f08c379a0000000000000000000000000000000000000000000000000000000008152600401611f9c9061290c565b60405180910390fd5b805181602001fd5b63150b7a0260e01b7bffffffffffffffffffffffffffffffffffffffffffffffffffffffff1916817bffffffffffffffffffffffffffffffffffffffffffffffffffffffff191614915050612002565b600190505b949350505050565b6000808273ffffffffffffffffffffffffffffffffffffffff163b119050919050565b82805461203990612da2565b90600052602060002090601f01602090048101928261205b57600085556120a2565b82601f1061207457805160ff19168380011785556120a2565b828001600101855582156120a2579182015b828111156120a1578251825591602001919060010190612086565b5b5090506120af91906120b3565b5090565b5b808211156120cc5760008160009055506001016120b4565b5090565b60006120e36120de84612b8c565b612b67565b9050828152602081018484840111156120fb57600080fd5b612106848285612d60565b509392505050565b600061212161211c84612bbd565b612b67565b90508281526020810184848401111561213957600080fd5b612144848285612d60565b509392505050565b60008135905061215b8161341c565b92915050565b60008135905061217081613433565b92915050565b6000813590506121858161344a565b92915050565b60008151905061219a8161344a565b92915050565b600082601f8301126121b157600080fd5b81356121c18482602086016120d0565b91505092915050565b600082601f8301126121db57600080fd5b81356121eb84826020860161210e565b91505092915050565b60008135905061220381613461565b92915050565b60006020828403121561221b57600080fd5b60006122298482850161214c565b91505092915050565b6000806040838503121561224557600080fd5b60006122538582860161214c565b92505060206122648582860161214c565b9150509250929050565b60008060006060848603121561228357600080fd5b60006122918682870161214c565b93505060206122a28682870161214c565b92505060406122b3868287016121f4565b9150509250925092565b600080600080608085870312156122d357600080fd5b60006122e18782880161214c565b94505060206122f28782880161214c565b9350506040612303878288016121f4565b925050606085013567ffffffffffffffff81111561232057600080fd5b61232c878288016121a0565b91505092959194509250565b6000806040838503121561234b57600080fd5b60006123598582860161214c565b925050602061236a85828601612161565b9150509250929050565b60008060006060848603121561238957600080fd5b60006123978682870161214c565b935050602084013567ffffffffffffffff8111156123b457600080fd5b6123c0868287016121ca565b925050604084013567ffffffffffffffff8111156123dd57600080fd5b6123e9868287016121ca565b9150509250925092565b6000806040838503121561240657600080fd5b60006124148582860161214c565b9250506020612425858286016121f4565b9150509250929050565b60006020828403121561244157600080fd5b600061244f84828501612176565b91505092915050565b60006020828403121561246a57600080fd5b60006124788482850161218b565b91505092915050565b6000806040838503121561249457600080fd5b600083013567ffffffffffffffff8111156124ae57600080fd5b6124ba858286016121ca565b92505060206124cb858286016121f4565b9150509250929050565b6000602082840312156124e757600080fd5b60006124f5848285016121f4565b91505092915050565b61250781612cec565b82525050565b61251681612cfe565b82525050565b600061252782612bee565b6125318185612c04565b9350612541818560208601612d6f565b61254a81612f3b565b840191505092915050565b600061256082612bf9565b61256a8185612c15565b935061257a818560208601612d6f565b61258381612f3b565b840191505092915050565b600061259982612bf9565b6125a38185612c26565b93506125b3818560208601612d6f565b80840191505092915050565b60006125cc603283612c15565b91506125d782612f4c565b604082019050919050565b60006125ef602683612c15565b91506125fa82612f9b565b604082019050919050565b6000612612602583612c15565b915061261d82612fea565b604082019050919050565b6000612635601c83612c15565b915061264082613039565b602082019050919050565b6000612658602483612c15565b915061266382613062565b604082019050919050565b600061267b601983612c15565b9150612686826130b1565b602082019050919050565b600061269e602c83612c15565b91506126a9826130da565b604082019050919050565b60006126c1603883612c15565b91506126cc82613129565b604082019050919050565b60006126e4602a83612c15565b91506126ef82613178565b604082019050919050565b6000612707602983612c15565b9150612712826131c7565b604082019050919050565b600061272a601883612c15565b915061273582613216565b602082019050919050565b600061274d602083612c15565b91506127588261323f565b602082019050919050565b6000612770602c83612c15565b915061277b82613268565b604082019050919050565b6000612793602083612c15565b915061279e826132b7565b602082019050919050565b60006127b6602f83612c15565b91506127c1826132e0565b604082019050919050565b60006127d9602183612c15565b91506127e48261332f565b604082019050919050565b60006127fc603183612c15565b91506128078261337e565b604082019050919050565b600061281f603083612c15565b915061282a826133cd565b604082019050919050565b61283e81612d56565b82525050565b6000612850828561258e565b915061285c828461258e565b91508190509392505050565b600060208201905061287d60008301846124fe565b92915050565b600060808201905061289860008301876124fe565b6128a560208301866124fe565b6128b26040830185612835565b81810360608301526128c4818461251c565b905095945050505050565b60006020820190506128e4600083018461250d565b92915050565b600060208201905081810360008301526129048184612555565b905092915050565b60006020820190508181036000830152612925816125bf565b9050919050565b60006020820190508181036000830152612945816125e2565b9050919050565b6000602082019050818103600083015261296581612605565b9050919050565b6000602082019050818103600083015261298581612628565b9050919050565b600060208201905081810360008301526129a58161264b565b9050919050565b600060208201905081810360008301526129c58161266e565b9050919050565b600060208201905081810360008301526129e581612691565b9050919050565b60006020820190508181036000830152612a05816126b4565b9050919050565b60006020820190508181036000830152612a25816126d7565b9050919050565b60006020820190508181036000830152612a45816126fa565b9050919050565b60006020820190508181036000830152612a658161271d565b9050919050565b60006020820190508181036000830152612a8581612740565b9050919050565b60006020820190508181036000830152612aa581612763565b9050919050565b60006020820190508181036000830152612ac581612786565b9050919050565b60006020820190508181036000830152612ae5816127a9565b9050919050565b60006020820190508181036000830152612b05816127cc565b9050919050565b60006020820190508181036000830152612b25816127ef565b9050919050565b60006020820190508181036000830152612b4581612812565b9050919050565b6000602082019050612b616000830184612835565b92915050565b6000612b71612b82565b9050612b7d8282612dd4565b919050565b6000604051905090565b600067ffffffffffffffff821115612ba757612ba6612f0c565b5b612bb082612f3b565b9050602081019050919050565b600067ffffffffffffffff821115612bd857612bd7612f0c565b5b612be182612f3b565b9050602081019050919050565b600081519050919050565b600081519050919050565b600082825260208201905092915050565b600082825260208201905092915050565b600081905092915050565b6000612c3c82612d56565b9150612c4783612d56565b9250827fffffffffffffffffffffffffffffffffffffffffffffffffffffffffffffffff03821115612c7c57612c7b612e7f565b5b828201905092915050565b6000612c9282612d56565b9150612c9d83612d56565b925082612cad57612cac612eae565b5b828204905092915050565b6000612cc382612d56565b9150612cce83612d56565b925082821015612ce157612ce0612e7f565b5b828203905092915050565b6000612cf782612d36565b9050919050565b60008115159050919050565b60007fffffffff0000000000000000000000000000000000000000000000000000000082169050919050565b600073ffffffffffffffffffffffffffffffffffffffff82169050919050565b6000819050919050565b82818337600083830152505050565b60005b83811015612d8d578082015181840152602081019050612d72565b83811115612d9c576000848401525b50505050565b60006002820490506001821680612dba57607f821691505b60208210811415612dce57612dcd612edd565b5b50919050565b612ddd82612f3b565b810181811067ffffffffffffffff82111715612dfc57612dfb612f0c565b5b80604052505050565b6000612e1082612d56565b91507fffffffffffffffffffffffffffffffffffffffffffffffffffffffffffffffff821415612e4357612e42612e7f565b5b600182019050919050565b6000612e5982612d56565b9150612e6483612d56565b925082612e7457612e73612eae565b5b828206905092915050565b7f4e487b7100000000000000000000000000000000000000000000000000000000600052601160045260246000fd5b7f4e487b7100000000000000000000000000000000000000000000000000000000600052601260045260246000fd5b7f4e487b7100000000000000000000000000000000000000000000000000000000600052602260045260246000fd5b7f4e487b7100000000000000000000000000000000000000000000000000000000600052604160045260246000fd5b6000601f19601f8301169050919050565b7f4552433732313a207472616e7366657220746f206e6f6e20455243373231526560008201527f63656976657220696d706c656d656e7465720000000000000000000000000000602082015250565b7f4f776e61626c653a206e6577206f776e657220697320746865207a65726f206160008201527f6464726573730000000000000000000000000000000000000000000000000000602082015250565b7f4552433732313a207472616e736665722066726f6d20696e636f72726563742060008201527f6f776e6572000000000000000000000000000000000000000000000000000000602082015250565b7f4552433732313a20746f6b656e20616c7265616479206d696e74656400000000600082015250565b7f4552433732313a207472616e7366657220746f20746865207a65726f2061646460008201527f7265737300000000000000000000000000000000000000000000000000000000602082015250565b7f4552433732313a20617070726f766520746f2063616c6c657200000000000000600082015250565b7f4552433732313a206f70657261746f7220717565727920666f72206e6f6e657860008201527f697374656e7420746f6b656e0000000000000000000000000000000000000000602082015250565b7f4552433732313a20617070726f76652063616c6c6572206973206e6f74206f7760008201527f6e6572206e6f7220617070726f76656420666f7220616c6c0000000000000000602082015250565b7f4552433732313a2062616c616e636520717565727920666f7220746865207a6560008201527f726f206164647265737300000000000000000000000000000000000000000000602082015250565b7f4552433732313a206f776e657220717565727920666f72206e6f6e657869737460008201527f656e7420746f6b656e0000000000000000000000000000000000000000000000602082015250565b7f4552433732313a20496e76616c696420746f6b656e2049440000000000000000600082015250565b7f4552433732313a206d696e7420746f20746865207a65726f2061646472657373600082015250565b7f4552433732313a20617070726f76656420717565727920666f72206e6f6e657860008201527f697374656e7420746f6b656e0000000000000000000000000000000000000000602082015250565b7f4f776e61626c653a2063616c6c6572206973206e6f7420746865206f776e6572600082015250565b7f4552433732314d657461646174613a2055524920717565727920666f72206e6f60008201527f6e6578697374656e7420746f6b656e0000000000000000000000000000000000602082015250565b7f4552433732313a20617070726f76616c20746f2063757272656e74206f776e6560008201527f7200000000000000000000000000000000000000000000000000000000000000602082015250565b7f4552433732313a207472616e736665722063616c6c6572206973206e6f74206f60008201527f776e6572206e6f7220617070726f766564000000000000000000000000000000602082015250565b7f4552433732314275726e61626c653a2063616c6c6572206973206e6f74206f7760008201527f6e6572206e6f7220617070726f76656400000000000000000000000000000000602082015250565b61342581612cec565b811461343057600080fd5b50565b61343c81612cfe565b811461344757600080fd5b50565b61345381612d0a565b811461345e57600080fd5b50565b61346a81612d56565b811461347557600080fd5b5056fea26469706673582212204bc7434b553d7b10e471c5a4a45cf2f7e36ecc67b013ea3fc714b0bd2b3e8b3f64736f6c63430008040033",
  "immutableReferences": {},
  "source": "// SPDX-License-Identifier: MIT\npragma solidity ^0.8.4;\n\nimport \"@openzeppelin/contracts/token/ERC721/ERC721.sol\";\nimport \"@openzeppelin/contracts/token/ERC721/extensions/ERC721Burnable.sol\";\nimport \"@openzeppelin/contracts/access/Ownable.sol\";\nimport \"@openzeppelin/contracts/utils/Counters.sol\";\n\ncontract NFT is ERC721, ERC721Burnable, Ownable {\n    using Counters for Counters.Counter;\n\n    Counters.Counter private _tokenIdCounter;\n    \n     constructor(\n        \n        string memory conName,\n        string memory conSymb\n       \n    ) ERC721(conName, conSymb ) {\n        \n        \n    }\n\n       mapping(uint256 => string) private docHASHs;\n       mapping(uint256 => string) private issuerIDs;\n       mapping(uint256 => address) private _owners;\n\n    // Mapping owner address to token count\n    mapping(address => uint256) private _balances;\n   \n\n    function safeMint(address to,  string memory docHASH  , string memory issuerID) public  {\n         uint256 tokenId = _tokenIdCounter.current();\n        mintdoc(to, tokenId,  issuerID,  docHASH );\n        _tokenIdCounter.increment();\n        \n       \n    }\n\n\n      function mintdoc(address  to, uint256 tokenId, string memory issuerID , string memory docHASH ) private {\n        require(to != address(0), \"ERC721: mint to the zero address\");\n        require(!_exists(tokenId), \"ERC721: token already minted\");\n\n       \n\n        _balances[to] += 1;\n        _owners[tokenId] = to;\n\n          issuerIDs[tokenId] = issuerID;\n         setdochash( docHASH , tokenId);\n        emit Transfer(address(0), to, tokenId);\n\n        \n    }\n\n\n    function _burn(uint256 tokenId) internal override(ERC721) {\n        super._burn(tokenId);\n    }\n\n    function setdochash(string memory docHASH , uint256 tokenId) public {\n\n    \n\n        docHASHs[tokenId] = docHASH;\n    }\n\n    function getIssuerID( uint256 tokenId) public view returns(string memory) {\n          require(_owners[tokenId] != address(0), \"ERC721: Invalid token ID\");\n        return issuerIDs[tokenId];\n    }\n\n    function getdoc( uint256 tokenId) public view returns(string memory) {\n         require(_owners[tokenId] != address(0), \"ERC721: Invalid token ID\");\n        return docHASHs[tokenId];\n    }\n\n    function Ownerof( uint256 tokenId) public view returns(address ) {\n        require(_owners[tokenId] != address(0), \"ERC721: Invalid token ID\");\n        return _owners[tokenId];\n    }\n    \n    function gettokenID( address to) public view returns(uint256) {\n        uint256 id;\n        id = _balances[to]-1;\n        return id;\n    }\n   \n}\n",
  "sourcePath": "/home/jayantkumar/nft/contracts/NFTdemo.sol",
  "compiler": {
    "name": "solc",
    "version": "0.8.4+commit.c7e474f2.Emscripten.clang"
  },
  "schemaVersion": "3.4.7",
  "updatedAt": "2022-06-23T04:39:07.311Z",
  "networkType": "ethereum",
  "devdoc": {
    "kind": "dev",
    "methods": {
      "approve(address,uint256)": {
        "details": "See {IERC721-approve}."
      },
      "balanceOf(address)": {
        "details": "See {IERC721-balanceOf}."
      },
      "burn(uint256)": {
        "details": "Burns `tokenId`. See {ERC721-_burn}. Requirements: - The caller must own `tokenId` or be an approved operator."
      },
      "getApproved(uint256)": {
        "details": "See {IERC721-getApproved}."
      },
      "isApprovedForAll(address,address)": {
        "details": "See {IERC721-isApprovedForAll}."
      },
      "name()": {
        "details": "See {IERC721Metadata-name}."
      },
      "owner()": {
        "details": "Returns the address of the current owner."
      },
      "ownerOf(uint256)": {
        "details": "See {IERC721-ownerOf}."
      },
      "renounceOwnership()": {
        "details": "Leaves the contract without owner. It will not be possible to call `onlyOwner` functions anymore. Can only be called by the current owner. NOTE: Renouncing ownership will leave the contract without an owner, thereby removing any functionality that is only available to the owner."
      },
      "safeTransferFrom(address,address,uint256)": {
        "details": "See {IERC721-safeTransferFrom}."
      },
      "safeTransferFrom(address,address,uint256,bytes)": {
        "details": "See {IERC721-safeTransferFrom}."
      },
      "setApprovalForAll(address,bool)": {
        "details": "See {IERC721-setApprovalForAll}."
      },
      "supportsInterface(bytes4)": {
        "details": "See {IERC165-supportsInterface}."
      },
      "symbol()": {
        "details": "See {IERC721Metadata-symbol}."
      },
      "tokenURI(uint256)": {
        "details": "See {IERC721Metadata-tokenURI}."
      },
      "transferFrom(address,address,uint256)": {
        "details": "See {IERC721-transferFrom}."
      },
      "transferOwnership(address)": {
        "details": "Transfers ownership of the contract to a new account (`newOwner`). Can only be called by the current owner."
      }
    },
    "version": 1
  },
  "userdoc": {
    "kind": "user",
    "methods": {},
    "version": 1
  }
}